S017000041697220436F6E646974696F6E65722E7372656353
S11300000C9431000C9440050C947B050C948A05E7
S11300100C944E000C946E070C944E000C944E00FD
S11300200C944E000C944E000C944E000C944E0014
S11300300C944E000C944E000C944E000C944E0004
S11300400C944E000C944E000C944E000C944E00F4
S11300500C944E0011071C07320727073D07480779
S1130060530711241FBECFE5D8E0DEBFCDBF10E09B
S1130070A0E6B0E0EEE9F3E102C005900D92AE39DE
S1130080B107D9F720E0AEE9B0E001C01D92AD3A66
S1130090B207E1F70E9450030C94CD090C940000C0
S11300A060E081E00E943E0381E690E00E94D50278
S11300B060E082E00E943E0380E790E00E94D50267
S11300C060E070E08AEF93E40E94AE060E943A0377
S11300D060E081E00E943E038FE790E00E94D50239
S11300E060E082E00E943E038EE890E00E94D50228
S11300F060E070E08AEF93E40E94AE060E943A0347
S11301000895CF93DF93D0E03CC00E940401D82F20
S113011060E070E088E492E40E94AE06D13319F006
S1130120D23349F012C0809160008F5F80936000E9
S11301301092AB000DC080916000815080936000EC
S11301400E943A031092AB0003C081E08093AB009D
S113015067E081E00E943E036091600070E080E00F
S113016090E00E94E80260E082E00E943E03C2E167
S113017004C08CE70E944C03CF5F809160008C1711
S1130180C0F7D33329F08091AC00823009F0BDCFA1
S113019082E08093AC00DF91CF9108950E94EB0040
S11301A00E9460070E94850208958091AC0081112D
S11301B003C081E08093AC008091AC00813021F4D5
S11301C00E9450000E9481008091AC00823011F4A2
S11301D00E943A030895CF93C0E009C060E08C2FD9
S11301E00E94550361E08C2F0E945704CF5FC330F7
S11301F0A8F3C3E005C062E08C2F0E945503CF5FD3
S1130200C630C8F3CF910895FF920F931F93CF93F5
S1130210DF931F92CDB7DEB781E0898300E0AEC0E3
S113022060E0802F0E94570487E893E10197F1F77B
S113023000C0000013E09AC0BE016F5F7F4F812FA2
S11302400E94F4048EC0BE016F5F7F4F812F0E9415
S1130250F404013011F130F00230D1F1033009F42B
S113026051C06AC0143051F020F4133009F466C050
S113027078C0153041F0163059F073C00F2EF8E3F2
S1130280FF2EF02D6EC00F2EF9E3FF2EF02D69C066
S11302900F2EFFE2FF2EF02D64C0143051F020F435
S11302A0133009F450C05DC0153041F0163059F0D8
S11302B058C00F2EF5E3FF2EF02D53C00F2EF6E39A
S11302C0FF2EF02D4EC00F2EFAE2FF2EF02D49C066
S11302D0143049F018F41330D9F143C0153041F00B
S11302E0163059F03EC00F2EF2E3FF2EF02D39C028
S11302F00F2EF3E3FF2EF02D34C00F2EFDE2FF2E60
S1130300F02D2FC0143049F018F4133031F129C006
S1130310153041F0163059F024C00F2EF0E3FF2EB3
S1130320F02D1FC00F2EFDE3FF2EF02D1AC00F2E4F
S1130330FBE2FF2EF02D15C0F12C13C00F2EF7E3B6
S1130340FF2EF02D0EC00F2EF4E3FF2EF02D09C06A
S11303500F2EF1E3FF2EF02D04C00F2EF1E4FF2E3B
S1130360F02D8981882309F46ECF1F5F163008F4BD
S113037063CF61E0802F0E9457040F5F033008F4BD
S11303804FCF8F2D0F90DF91CF911F910F91FF9041
S11303900895CF93C82F60E088E10E94570460E07D
S11303A089E10E945704C4FB662760F980E10E943A
S11303B05704C5FB662760F981E10E945704C6FB18
S11303C0662760F982E10E9457046C2F661F662736
S11303D0661F83E10E94570461E08AE10E9457048A
S11303E089EF90E00197F1F700C0000060E08AE136
S11303F00E94570489EF90E00197F1F700C00000D4
S11304006C2F617080E10E945704C1FB662760F97C
S113041081E10E945704C2FB662760F982E10E94D1
S11304205704C3FB662760F983E10E94570461E027
S11304308AE10E94570489EF90E00197F1F700C028
S1130440000060E08AE10E94570489EF90E0019780
S1130450F1F700C00000CF910895CF93C82F61E059
S113046088E10E94570460E089E10E945704C4FBBC
S1130470662760F980E10E945704C5FB662760F98E
S113048081E10E945704C6FB662760F982E10E945D
S113049057046C2F661F6627661F83E10E9457046A
S11304A061E08AE10E945704000060E08AE10E9452
S11304B0570482E48A95F1F700C06C2F617080E1E3
S11304C00E945704C1FB662760F981E10E9457042A
S11304D0C2FB662760F982E10E945704C3FB6627CA
S11304E060F983E10E94570461E08AE10E945704A5
S11304F0000060E08AE10E94570483EF91E00197D5
S1130500F1F700C00000CF91089560E080E10E94FF
S1130510550360E081E10E94550360E082E10E949E
S1130520550360E083E10E94550360E088E10E9486
S1130530550360E089E10E94550360E08AE10E946E
S1130540550383ED90E30197F1F700C0000082E0CA
S11305500E94C90189EF90E00197F1F700C0000003
S113056088E20E94C90189EF90E00197F1F700C089
S113057000008CE00E94C90189EF90E00197F1F737
S113058000C0000081E00E94C90183EF91E001975F
S1130590F1F700C0000086E00E94C90189EF90E0F5
S11305A00197F1F700C0000008950F931F93CF93B4
S11305B08C01C0E003C00E942D02CF5FF801EC0F54
S11305C0F11D80818111F7CFCF911F910F91089573
S11305D0CF92DF92EF92FF921F93CF93DF93CDB729
S11305E0DEB760970FB6F894DEBF0FBECDBF6B01C8
S11305F07C01672B682B692B19F480E30E942D0280
S113060010E015C0C701B6012AE030E040E050E038
S11306100E94A509E1E0F0E0EC0FFD1FE10FF11DE0
S1130620605D60831F5FC22ED32EE42EF52EC114AD
S1130630D104E104F10431F70DC0E12FF0E031976A
S113064081E090E08C0F9D1FE80FF91F80810E94CC
S11306502D0211501111F1CF60960FB6F894DEBF40
S11306600FBECDBFDF91CF911F91FF90EF90DF9030
S1130670CF90089581E00E94C9010895813029F442
S113068080E8860F0E94C9010895823021F480EC2D
S1130690860F0E94C901089581110E942D020895B8
S11306A00E94CE000E94D500FDCF982F9695969576
S11306B096958770953008F0F8C0613031F008F4F1
S11306C0A4C0623009F451C0EFC09130C1F028F0E9
S11306D0923039F19330B9F1E7C04AB321E030E008
S11306E0B90102C0660F771F8A95E2F7CB018095A6
S11306F0942F98239ABB9BB389238BBBD5C047B354
S113070021E030E0B90102C0660F771F8A95E2F755
S1130710CB018095942F982397BB98B3892388BBEA
S1130720C3C044B321E030E0B90102C0660F771FB3
S11307308A95E2F7CB018095942F982394BB95B3C7
S1130740892385BBB1C041B321E030E0B90102C0C7
S1130750660F771F8A95E2F7CB018095942F982333
S113076091BB92B3892382BB9FC09130C1F028F022
S1130770923039F19330B9F197C04AB321E030E0B7
S1130780B90102C0660F771F8A95E2F7CB01962F55
S1130790909594239ABB9BB3892B8BBB85C047B39D
S11307A021E030E0B90102C0660F771F8A95E2F7B5
S11307B0CB01962F9095942397BB98B3892B88BB34
S11307C073C044B321E030E0B90102C0660F771F63
S11307D08A95E2F7CB01962F9095942394BB95B319
S11307E0892B85BB61C041B321E030E0B90102C06F
S11307F0660F771F8A95E2F7CB01962F9095942385
S113080091BB92B3892B82BB4FC09130C1F028F0C9
S1130810923039F19330B9F147C04BB321E030E065
S1130820B90102C0660F771F8A95E2F7CB01962FB4
S1130830909594239BBB9AB3892B8ABB35C048B34C
S113084021E030E0B90102C0660F771F8A95E2F714
S1130850CB01962F9095942398BB97B3892B87BB94
S113086023C045B321E030E0B90102C0660F771F11
S11308708A95E2F7CB01962F9095942395BB94B378
S1130880892B84BB11C042B321E030E0B90102C01E
S1130890660F771F8A95E2F7CB01962F90959423E4
S11308A092BB91B3892B81BB089582E00895982F60
S11308B09695969596958770953008F08DC063301F
S11308C008F08CC0613009F040C09130A1F028F0EC
S11308D09230F9F0933059F183C04BB321E030E00A
S11308E0B90102C0660F771F8A95E2F7CB01842B0A
S11308F08BBB80E0089548B321E030E0B90102C029
S1130900660F771F8A95E2F7CB01842B88BB80E0C2
S1130910089545B321E030E0B90102C0660F771FA6
S11309208A95E2F7CB01842B85BB80E0089542B31E
S113093021E030E0B90102C0660F771F8A95E2F723
S1130940CB01842B82BB80E00895611144C09130B7
S1130950A9F028F0923009F1933071F143C04BB300
S113096021E030E0B90102C0660F771F8A95E2F7F3
S1130970CB01809584238BBB80E0089548B321E0AC
S113098030E0B90102C0660F771F8A95E2F7CB0108
S11309908095842388BB80E0089545B321E030E04E
S11309A0B90102C0660F771F8A95E2F7CB018095E3
S11309B0842385BB80E0089542B321E030E0B9018F
S11309C002C0660F771F8A95E2F7CB0180958423D6
S11309D082BB80E00895089582E0089583E008953D
S11309E080E0089580E00895982F969596959695C1
S11309F08770953008F040C09130A1F028F0923013
S1130A00F9F0933059F13AC029B330E0A90102C09A
S1130A10559547958A95E2F7CA018170FB01808359
S1130A2080E0089526B330E0A90102C055954795AA
S1130A308A95E2F7CA018170FB01808380E0089502
S1130A4023B330E0A90102C0559547958A95E2F792
S1130A50CA018170FB01808380E0089520B330E0F7
S1130A60A90102C0559547958A95E2F7CA0181709C
S1130A70FB01808380E0089582E0089580E008957A
S1130A801F920F920FB60F9211242F933F934F93FF
S1130A905F936F937F938F939F93AF93BF93EF93E2
S1130AA0FF9310929E00E091A100F091A200309774
S1130AB089F0099560E080E10E94570460E081E1DB
S1130AC00E94570460E082E10E94570460E083E1E1
S1130AD00E945704FF91EF91BF91AF919F918F9125
S1130AE07F916F915F914F913F912F910F900FBE26
S1130AF00F901F9018951F920F920FB60F9211240A
S1130B008F9381E080939E008F910F900FBE0F9082
S1130B101F9018951F920F920FB60F9211242F93C6
S1130B203F934F935F936F937F938F939F93AF9371
S1130B30BF93EF93FF93E0919F00F091A000309753
S1130B4009F00995FF91EF91BF91AF919F918F911A
S1130B507F916F915F914F913F912F910F900FBEB5
S1130B600F901F9018958130F1F028F0823099F0A1
S1130B70833049F020C083B78F7B83BF83B7877FDF
S1130B8083BF84E0089583B7806483BF83B7877F7E
S1130B9083BF84E0089583B78F7B83BF83B7886066
S1130BA083BF84E0089583B7806483BF83B788607C
S1130BB083BF84E0089581E00895823009F128F428
S1130BC0882341F0813089F03CC0853021F18630A2
S1130BD069F137C083B7816083BF83B78D7F83BFDB
S1130BE083B78B7F83BF84E0089583B7826083BF1C
S1130BF083B78E7F83BF83B78B7F83BF84E00895E1
S1130C0083B7816083BF83B7826083BF83B78B7FE1
S1130C1083BF84E0089583B7846083BF83B78D7FE7
S1130C2083BF83B78E7F83BF84E0089583B78160D9
S1130C3083BF83B78D7F83BF83B7846083BF84E022
S1130C40089580E00895CF92DF92EF92FF926B01B6
S1130C507C0120E030E040E853E40E94440888230B
S1130C6094F420E030E0A901C701B6010E94A00974
S1130C7088235CF0C701B6010E942D080E94BB08BE
S1130C8062BF84E003C083E001C083E0FF90EF9083
S1130C90DF90CF9008958F929F92AF92BF92CF92A0
S1130CA0DF92EF92FF924B015C0120E030E0A9015A
S1130CB00E94A009181694F01EC008B600FEFDCFCD
S1130CC088B7816088BF20E030E040E85FE3C70177
S1130CD0B6010E94C1076B017C0103C0C12CD12C59
S1130CE07601A5019401C701B6010E944408882336
S1130CF024F384E02AC020E030E0A901C501B40156
S1130D000E94440818169CF482E01FC008B600FE36
S1130D10FDCF88B7816088BF20E030E040E85FE322
S1130D20C701B6010E94C1076B017C0103C0C12C3D
S1130D30D12C760120E030E040E85FE3C701B60142
S1130D400E944408882314F384E0FF90EF90DF901E
S1130D50CF90BF90AF909F908F90089520E030E0A7
S1130D604AE754E40E9449082DEB37E346E859E387
S1130D700E9449080E942D086093A7007093A80060
S1130D808093A9009093AA0080E00E94B30560E0DC
S1130D9070E0CB010E94230680E00E94DD05609193
S1130DA0A7007091A8008091A9009091AA000E94C8
S1130DB04B0608958130F1F028F0823099F08330A9
S1130DC049F020C085B58F7B85BD85B5877F85BDFE
S1130DD084E0089585B5806485BD85B5877F85BD2C
S1130DE084E0089585B58F7B85BD85B5886085BD14
S1130DF084E0089585B5806485BD85B5886085BD2A
S1130E0084E0089581E0089584BD84E0089590E02D
S1130E108730910508F052C0FC01E65DFF4F0C9449
S1130E20C70985B5816085BD85B58D7F85BD85B5CF
S1130E308B7F85BD84E0089585B5826085BD85B5C9
S1130E408E7F85BD85B58B7F85BD84E0089585B58E
S1130E50816085BD85B5826085BD85B58B7F85BD87
S1130E6084E0089585B5846085BD85B58D7F85BD95
S1130E7085B58E7F85BD84E0089585B5816085BD87
S1130E8085B58D7F85BD85B5846085BD84E0089575
S1130E9085B5846085BD85B58E7F85BD85B5826049
S1130EA085BD84E0089585B5816085BD85B5826082
S1130EB085BD85B5846085BD84E0089580E008958E
S1130EC0789489B7806489BF80E00E94DA0680E064
S1130ED00E94040780E00E94070708951F920F9262
S1130EE00FB60F9211242F938F939F93AF93BF93B9
S1130EF08091AC00813091F58091AB00813071F527
S1130F008091A3009091A400A091A500B091A600A7
S1130F108C342CE49207A105B10564F40196A11D5B
S1130F20B11D8093A3009093A400A093A500B09357
S1130F30A6001CC08C349C44A105B105B9F41092E0
S1130F40A3001092A4001092A5001092A60084E1C0
S1130F508093600082E08093AC0008C01092A300EC
S1130F601092A4001092A5001092A600BF91AF9118
S1130F709F918F912F910F900FBE0F901F901895F6
S1130F805058BB27AA270E94D8070C944E090E94E8
S1130F90400938F00E94470920F039F49F3F19F4C2
S1130FA026F40C943D090EF4E095E7FB0C940E092D
S1130FB0E92F0E945F0958F3BA1762077307840781
S1130FC0950720F079F4A6F50C9499090EF4E095B0
S1130FD00B2EBA2FA02D0B01B90190010C01CA01EF
S1130FE0A0011124FF27591B99F0593F50F4503E9A
S1130FF068F11A16F040A22F232F342F4427585F8C
S1131000F3CF469537952795A795F0405395C9F7A3
S11310107EF41F16BA0B620B730B840BBAF091505B
S1131020A1F0FF0FBB1F661F771F881FC2F70EC0FA
S1131030BA0F621F731F841F48F4879577956795CD
S1131040B795F7959E3F08F0B0CF9395880F08F0B9
S11310509927EE0F9795879508950E94810990F03E
S11310609F3748F4911116F40C949A0960E070E0EB
S113107080E89FE3089526F01B16611D711D811DF4
S11310800C9414090C942F090E94EA0808F481E0D6
S113109008950E945D080C944E090E94470958F077
S11310A00E94400940F029F45F3F29F00C940E0996
S11310B051110C949A090C943D090E945F0968F33C
S11310C09923B1F3552391F3951B550BBB27AA27FD
S11310D062177307840738F09F5F5F4F220F331F37
S11310E0441FAA1FA9F335D00E2E3AF0E0E832D0FF
S11310F091505040E695001CCAF72BD0FE2F29D002
S1131100660F771F881FBB1F261737074807AB07D3
S1131110B0E809F0BB0B802DBF01FF2793585F4F48
S11311203AF09E3F510578F00C940E090C949A09FC
S11311305F3FE4F3983ED4F3869577956795B7952A
S1131140F7959F5FC9F7880F911D9695879597F935
S11311500895E1E0660F771F881FBB1F62177307AE
S11311608407BA0720F0621B730B840BBA0BEE1FC3
S113117088F7E09508950E94670988F09F5798F0D2
S1131180B92F9927B751B0F0E1F0660F771F881F88
S1131190991F1AF0BA95C9F714C0B13091F00E94A2
S11311A09909B1E008950C949909672F782F88273D
S11311B0B85F39F0B93FCCF3869577956795B395C9
S11311C0D9F73EF490958095709561957F4F8F4F38
S11311D09F4F0895990F0008550FAA0BE0E8FEEF02
S11311E016161706E807F907C0F012161306E407E7
S11311F0F50798F0621B730B840B950B39F40A26E0
S113120061F0232B242B252B21F408950A2609F4BD
S1131210A140A6958FEF811D811D089597F99F67C1
S113122080E870E060E00895882371F4772321F06A
S11312309850872B762F07C0662311F499270DC089
S11312409051862B70E060E02AF09A95660F771F24
S1131250881FDAF7880F9695879597F908959F3F29
S113126031F0915020F4879577956795B795880F5D
S1131270911D9695879597F908959FEF80EC0895B1
S113128000240A9416161706180609060895002461
S11312900A9412161306140605060895092E0394DB
S11312A0000C11F4882352F0BB0F40F4BF2B11F44F
S11312B060FF04C06F5F7F4F8F4F9F4F089557FDAE
S11312C09058440F551F59F05F3F71F04795880FB0
S11312D097FB991F61F09F3F79F087950895121647
S11312E013061406551FF2CF4695F1DF08C01616F3
S11312F017061806991FF1CF8695710561050894A4
S113130008950E946709A0F0BEE7B91788F4BB27C7
S11313109F3860F41616B11D672F782F8827985FC1
S1131320F7CF869577956795B11D93959639C8F350
S11313300895E894BB2766277727CB0197F908958A
S11313400E94EA0808F48FEF0895A1E21A2EAA1B5E
S1131350BB1BFD010DC0AA1FBB1FEE1FFF1FA21761
S1131360B307E407F50720F0A21BB30BE40BF50B5E
S1131370661F771F881F991F1A9469F760957095E7
S1131380809590959B01AC01BD01CF010895EE0FAE
S1111390FF1F0590F491E02D0994F894FFCF0F
S113139E144D41582054454D5020495320333500A7
S11313AE4D494E2054454D5020495320313800505C
S11313BE4C454153452043484F4F53452000524519
S11113CE5155495245442054454D50200000CD
S9030000FC
